:020000040000FA
:020000000328D3
:040002000034003492
:0A00060083160F3085008316513079
:100010009F00831207309F00831285018312C00165
:10002000C201C101CA011030C300C500C400C6012D
:10003000C70183129F14831246084002031CC301A8
:1000400046084202031CC50146084102031CC401C4
:1000500043088312850085168501831245088312A3
:100060008500851685018312440883128500851654
:10007000850128308312C800C80B3C28C60F1B28F6
:10008000412883129F18422883121E088312C90038
:100090003230C902CA0DCA0D01304A049F00CA0C91
:1000A000CA0C83124A08003C0319602883124A08CC
:1000B000013C0319632883124A08023C031966288D
:1000C0004908C00068284908C20068284908C100DA
:0C00D000CA0A4A08033C0319CA0113289D
:02400E00E43C90
:00000001FF
