:020000040000FA
:040000000428332875
:040004000034003490
:080008008312850183169F019C
:100010000F3085008312103085003030850010309D
:1000200085003230012030308500103085003230BC
:100030000120303085001030850032300120003042
:1000400085002030850000308500323001202030CE
:1000500085000030850032300120203085000030DE
:0600600085000B28322888
:0A0066008312C3000D30C100C00179
:0E007000C00B3828C10B3828C30B35280034CC
:02400E00E43C90
:00000001FF
